{
  "_format": "hh-sol-artifact-1",
  "contractName": "FHEVoting",
  "sourceName": "contracts/FHEVoting.sol",
  "abi": [
    {
      "anonymous": false,
      "inputs": [
        {
          "indexed": true,
          "internalType": "address",
          "name": "voter",
          "type": "address"
        },
        {
          "indexed": true,
          "internalType": "uint256",
          "name": "sessionId",
          "type": "uint256"
        },
        {
          "indexed": false,
          "internalType": "bool",
          "name": "vote",
          "type": "bool"
        }
      ],
      "name": "VoteCast",
      "type": "event"
    },
    {
      "anonymous": false,
      "inputs": [
        {
          "indexed": true,
          "internalType": "uint256",
          "name": "sessionId",
          "type": "uint256"
        },
        {
          "indexed": false,
          "internalType": "string",
          "name": "title",
          "type": "string"
        },
        {
          "indexed": false,
          "internalType": "uint256",
          "name": "endTime",
          "type": "uint256"
        }
      ],
      "name": "VotingSessionCreated",
      "type": "event"
    },
    {
      "anonymous": false,
      "inputs": [
        {
          "indexed": true,
          "internalType": "uint256",
          "name": "sessionId",
          "type": "uint256"
        }
      ],
      "name": "VotingSessionEnded",
      "type": "event"
    },
    {
      "inputs": [
        {
          "internalType": "uint256",
          "name": "sessionId",
          "type": "uint256"
        },
        {
          "internalType": "externalEbool",
          "name": "vote",
          "type": "bytes32"
        },
        {
          "internalType": "bytes",
          "name": "inputProof",
          "type": "bytes"
        }
      ],
      "name": "castVote",
      "outputs": [],
      "stateMutability": "nonpayable",
      "type": "function"
    },
    {
      "inputs": [
        {
          "internalType": "string",
          "name": "title",
          "type": "string"
        },
        {
          "internalType": "string",
          "name": "description",
          "type": "string"
        },
        {
          "internalType": "uint256",
          "name": "duration",
          "type": "uint256"
        }
      ],
      "name": "createVotingSession",
      "outputs": [],
      "stateMutability": "nonpayable",
      "type": "function"
    },
    {
      "inputs": [
        {
          "internalType": "uint256",
          "name": "sessionId",
          "type": "uint256"
        }
      ],
      "name": "endVotingSession",
      "outputs": [],
      "stateMutability": "nonpayable",
      "type": "function"
    },
    {
      "inputs": [
        {
          "internalType": "uint256",
          "name": "sessionId",
          "type": "uint256"
        }
      ],
      "name": "getEncryptedResults",
      "outputs": [
        {
          "internalType": "euint32",
          "name": "yesVotes",
          "type": "bytes32"
        },
        {
          "internalType": "euint32",
          "name": "noVotes",
          "type": "bytes32"
        },
        {
          "internalType": "euint32",
          "name": "totalVotes",
          "type": "bytes32"
        }
      ],
      "stateMutability": "view",
      "type": "function"
    },
    {
      "inputs": [
        {
          "internalType": "uint256",
          "name": "sessionId",
          "type": "uint256"
        }
      ],
      "name": "getVotingSessionInfo",
      "outputs": [
        {
          "internalType": "string",
          "name": "title",
          "type": "string"
        },
        {
          "internalType": "string",
          "name": "description",
          "type": "string"
        },
        {
          "internalType": "bool",
          "name": "isActive",
          "type": "bool"
        },
        {
          "internalType": "uint256",
          "name": "endTime",
          "type": "uint256"
        }
      ],
      "stateMutability": "view",
      "type": "function"
    },
    {
      "inputs": [
        {
          "internalType": "address",
          "name": "user",
          "type": "address"
        },
        {
          "internalType": "uint256",
          "name": "sessionId",
          "type": "uint256"
        }
      ],
      "name": "hasUserVoted",
      "outputs": [
        {
          "internalType": "bool",
          "name": "",
          "type": "bool"
        }
      ],
      "stateMutability": "view",
      "type": "function"
    },
    {
      "inputs": [
        {
          "internalType": "address",
          "name": "",
          "type": "address"
        },
        {
          "internalType": "uint256",
          "name": "",
          "type": "uint256"
        }
      ],
      "name": "hasVoted",
      "outputs": [
        {
          "internalType": "bool",
          "name": "",
          "type": "bool"
        }
      ],
      "stateMutability": "view",
      "type": "function"
    },
    {
      "inputs": [],
      "name": "protocolId",
      "outputs": [
        {
          "internalType": "uint256",
          "name": "",
          "type": "uint256"
        }
      ],
      "stateMutability": "pure",
      "type": "function"
    },
    {
      "inputs": [],
      "name": "sessionCounter",
      "outputs": [
        {
          "internalType": "uint256",
          "name": "",
          "type": "uint256"
        }
      ],
      "stateMutability": "view",
      "type": "function"
    },
    {
      "inputs": [
        {
          "internalType": "uint256",
          "name": "",
          "type": "uint256"
        }
      ],
      "name": "votingSessions",
      "outputs": [
        {
          "internalType": "string",
          "name": "title",
          "type": "string"
        },
        {
          "internalType": "string",
          "name": "description",
          "type": "string"
        },
        {
          "internalType": "euint32",
          "name": "yesVotes",
          "type": "bytes32"
        },
        {
          "internalType": "euint32",
          "name": "noVotes",
          "type": "bytes32"
        },
        {
          "internalType": "euint32",
          "name": "totalVotes",
          "type": "bytes32"
        },
        {
          "internalType": "bool",
          "name": "isActive",
          "type": "bool"
        },
        {
          "internalType": "uint256",
          "name": "endTime",
          "type": "uint256"
        }
      ],
      "stateMutability": "view",
      "type": "function"
    }
  ],
  "bytecode": "0x608060405234610194575f6060610014610198565b8281528260208201528260408201520152731364cbbf2cdf5032c47d8226a6f6fbd2afcdacac6060610044610198565b73687820221192c5b662b25367f70076a37bc79b6c815273848b0066793bcc60346da1f49049357399b8d595602082015273a02cda4ca3a71d7c46997716f4283aa851c288126040820152015273687820221192c5b662b25367f70076a37bc79b6c60018060a01b03195f5160206113545f395f51905f525416175f5160206113545f395f51905f525573848b0066793bcc60346da1f49049357399b8d59560018060a01b03195f5160206113145f395f51905f525416175f5160206113145f395f51905f525573a02cda4ca3a71d7c46997716f4283aa851c2881260018060a01b03195f5160206113345f395f51905f525416175f5160206113345f395f51905f5255731364cbbf2cdf5032c47d8226a6f6fbd2afcdacac60018060a01b03195f5160206112f45f395f51905f525416175f5160206112f45f395f51905f525560405161112890816101cc8239f35b5f80fd5b60405190608082016001600160401b038111838210176101b757604052565b634e487b7160e01b5f52604160045260245ffdfe60806040526004361015610011575f80fd5b5f5f3560e01c80631186eb7c14610c7357806335bb3d3014610baf5780634254582514610b7257806369edea9614610acf5780638589c7a5146105a5578063a42ae62d1461050c578063c0efa88a14610100578063cc64e2af146100e2578063d46f96ed146100a75763da1f12ab14610088575f80fd5b346100a457806003193601126100a45760206040516127118152f35b80fd5b50346100a45760ff60406020926001600160a01b036100c536610e40565b911682526001855282822090825284522054166040519015158152f35b50346100a457806003193601126100a4576020600254604051908152f35b50346100a45760603660031901126100a45760043567ffffffffffffffff811161050857610132903690600401610eac565b60243567ffffffffffffffff811161050457610152903690600401610eac565b60025491905f1983146104f057600183016002556044354201908142116104dc5761017b610fa7565b90610184610fa7565b9161018d610fa7565b6040519360e0850185811067ffffffffffffffff8211176104c8576040528685526020850193845260408501928352606085019081526080850191825260a08501926001845260c0860194878652898b528a60205260408b20965180519067ffffffffffffffff82116103f3578c82916102078b54610d0e565b601f8111610474575b50602091601f84116001146104125792610407575b50508160011b915f199060031b1c19161787555b518051600188019167ffffffffffffffff82116103f35761025a8354610d0e565b8d601f82116103aa575b9050506020908d601f84116001146103195792807f67b05412a3a92d5c9c307eb0157cc1d1bfdb42b6b0eb2cbf93945ee1615dd8bc9d9b99969360069996936103029e9c99969261030e575b50508160011b915f199060031b1c19161790555b516002870155516003860155516004850155600584019051151560ff8019835416911617905551910155604051928392604084526040840190610e1c565b9060208301520390a280f35b015190505f806102b0565b9190601f198416858452828420935b8181106103925750937f67b05412a3a92d5c9c307eb0157cc1d1bfdb42b6b0eb2cbf93945ee1615dd8bc9d9b99969360069996936001936103029f9d9a97841161037a575b505050811b0190556102c4565b01515f1960f88460031b161c191690555f808061036d565b92936020600181928786015181550195019301610328565b80856020925220601f840160051c810191602085106103e9575b601f0160051c01908e905b8281106103dc5750610264565b6001918155018e906103cf565b90915081906103c4565b634e487b7160e01b8d52604160045260248dfd5b015190505f80610225565b8b81528281209350601f198516905b81811061045c5750908460019594939210610444575b505050811b018755610239565b01515f1960f88460031b161c191690555f8080610437565b92936020600181928786015181550195019301610421565b9160209193508b815220601f840160051c810191602085106104be575b918f9291601f8695930160051c01905b8181106104ae5750610210565b9283558493508f926001016104a1565b9091508190610491565b634e487b7160e01b8a52604160045260248afd5b634e487b7160e01b85526011600452602485fd5b634e487b7160e01b84526011600452602484fd5b8280fd5b5080fd5b50346100a45760203660031901126100a4576105869060043580825281602052604082208183528260205261059461057261056c60066040600181892001978781528060205260ff60058383200154169781528060205220015493610d7c565b94610d7c565b604051958695608087526080870190610e1c565b908582036020870152610e1c565b911515604084015260608301520390f35b503461099c57606036600319011261099c5760043560443567ffffffffffffffff811161099c573660238201121561099c57806004013567ffffffffffffffff811161099c57366024828401011161099c57825f525f60205261061160ff600560405f20015416610eca565b825f525f602052600660405f2001544211610a8a57335f52600160205260405f20835f5260205260ff60405f205416610a45576106b76106595f936020936024369201610e66565b6001600160a01b037f9e7b61f58c47dc699ac88507c4f5bb9f121c03808c5676a8078fe583e464970154169060405194858094819363196d0b9b60e01b83526024356004840152336024840152608060448401526084830190610e1c565b82606483015203925af1908115610a08575f91610a13575b506001600160a01b037f9e7b61f58c47dc699ac88507c4f5bb9f121c03808c5676a8078fe583e46497005416803b1561099c57604051630f8e573b60e21b815260048101839052336024820152905f908290604490829084905af18015610a08576109f3575b5033835260016020526040832082845260205260408320600160ff19825416179055818352826020526107776004604085200154610771610f16565b90611008565b82845283602052600460408520015561078e610f16565b9083610798610fa7565b60206001600160a01b037f9e7b61f58c47dc699ac88507c4f5bb9f121c03808c5676a8078fe583e46497015416606460405180958193637702dcff60e01b83528860048401528960248401528660448401525af19182156109e85786926109b3575b50606460209293876001600160a01b037f9e7b61f58c47dc699ac88507c4f5bb9f121c03808c5676a8078fe583e464970154166040519788958694637702dcff60e01b86526004860152602485015260448401525af19182156109a857849261096e575b509061087b61089e92848652856020526002604087200154611008565b838552846020526002604086200155828452836020526003604085200154611008565b818352826020526003604084200155808252816020526108c6600260408420015430906110a0565b808252816020526108de3060036040852001546110a0565b808252816020526108f63060046040852001546110a0565b8082528160205261090e3360026040852001546110a0565b808252816020526109263360036040852001546110a0565b8082528160205261093e3360046040852001546110a0565b604051600181527fd356173ae8eeea8691aee4c1be712c314a975a3d43ebc48b08ca54d0dac9122860203392a380f35b91506020823d6020116109a0575b8161098960209383610d46565b8101031261099c5790519061087b61085e565b5f80fd5b3d915061097c565b6040513d86823e3d90fd5b91506020823d6020116109e0575b816109ce60209383610d46565b8101031261099c5790519060646107fa565b3d91506109c1565b6040513d88823e3d90fd5b610a009193505f90610d46565b5f915f610735565b6040513d5f823e3d90fd5b90506020813d602011610a3d575b81610a2e60209383610d46565b8101031261099c57515f6106cf565b3d9150610a21565b60405162461bcd60e51b815260206004820152601660248201527f557365722068617320616c726561647920766f746564000000000000000000006044820152606490fd5b60405162461bcd60e51b815260206004820152601860248201527f566f74696e672073657373696f6e2068617320656e64656400000000000000006044820152606490fd5b3461099c57602036600319011261099c57600435805f525f60205260ff600560405f20015416610b2d575f90815260208181526040918290206002810154600382015460049092015484519182529281019190915291820152606090f35b60405162461bcd60e51b815260206004820152601e60248201527f566f74696e672073657373696f6e206973207374696c6c2061637469766500006044820152606490fd5b3461099c576001600160a01b03610b8836610e40565b91165f52600160205260405f20905f52602052602060ff60405f2054166040519015158152f35b3461099c57602036600319011261099c57600435805f525f602052610bdd60ff600560405f20015416610eca565b805f525f602052600660405f200154421115610c2f57805f525f602052600560405f200160ff1981541690557f9956bd7b1ae344fbb54dbd02a85e2283bec6bf75f7fccbaa9c2392a715e71e495f80a2005b606460405162461bcd60e51b815260206004820152602060248201527f566f74696e672073657373696f6e20686173206e6f7420656e646564207965746044820152fd5b3461099c57602036600319011261099c576004355f525f602052610ce060405f20610c9d81610d7c565b90610caa60018201610d7c565b6002820154916003810154600482015490610cee600660ff6005860154169401549460405198899860e08a5260e08a0190610e1c565b9088820360208a0152610e1c565b94604087015260608601526080850152151560a084015260c08301520390f35b90600182811c92168015610d3c575b6020831014610d2857565b634e487b7160e01b5f52602260045260245ffd5b91607f1691610d1d565b90601f8019910116810190811067ffffffffffffffff821117610d6857604052565b634e487b7160e01b5f52604160045260245ffd5b9060405191825f825492610d8f84610d0e565b8084529360018116908115610dfa5750600114610db6575b50610db492500383610d46565b565b90505f9291925260205f20905f915b818310610dde575050906020610db4928201015f610da7565b6020919350806001915483858901015201910190918492610dc5565b905060209250610db494915060ff191682840152151560051b8201015f610da7565b805180835260209291819084018484015e5f828201840152601f01601f1916010190565b604090600319011261099c576004356001600160a01b038116810361099c579060243590565b92919267ffffffffffffffff8211610d685760405191610e90601f8201601f191660200184610d46565b82948184528183011161099c578281602093845f960137010152565b9080601f8301121561099c57816020610ec793359101610e66565b90565b15610ed157565b60405162461bcd60e51b815260206004820152601c60248201527f566f74696e672073657373696f6e206973206e6f7420616374697665000000006044820152606490fd5b5f60206001600160a01b037f9e7b61f58c47dc699ac88507c4f5bb9f121c03808c5676a8078fe583e46497015416604460405180948193639cd07acb60e01b835260016004840152600460248401525af1908115610a08575f91610f78575090565b90506020813d602011610f9f575b81610f9360209383610d46565b8101031261099c575190565b3d9150610f86565b5f60206001600160a01b037f9e7b61f58c47dc699ac88507c4f5bb9f121c03808c5676a8078fe583e46497015416604460405180948193639cd07acb60e01b8352816004840152600460248401525af1908115610a08575f91610f78575090565b908115611090575b801561107e575b60209060646001600160a01b037f9e7b61f58c47dc699ac88507c4f5bb9f121c03808c5676a8078fe583e46497015416935f604051958694859363022f65e760e31b8552600485015260248401528160448401525af1908115610a08575f91610f78575090565b506020611089610fa7565b9050611017565b905061109a610fa7565b90611010565b6001600160a01b037f9e7b61f58c47dc699ac88507c4f5bb9f121c03808c5676a8078fe583e4649700541691823b1561099c57604051635ca4b5b160e11b815260048101929092526001600160a01b03166024820152905f908290604490829084905af18015610a08576111115750565b5f610db491610d4656fea164736f6c634300081b000a9e7b61f58c47dc699ac88507c4f5bb9f121c03808c5676a8078fe583e46497039e7b61f58c47dc699ac88507c4f5bb9f121c03808c5676a8078fe583e46497019e7b61f58c47dc699ac88507c4f5bb9f121c03808c5676a8078fe583e46497029e7b61f58c47dc699ac88507c4f5bb9f121c03808c5676a8078fe583e4649700",
  "linkReferences": {},
  "deployedLinkReferences": {}
}