{
  "_format": "hh-sol-artifact-1",
  "contractName": "FHECounter",
  "sourceName": "contracts/FHECounter.sol",
  "abi": [
    {
      "inputs": [
        {
          "internalType": "externalEuint32",
          "name": "inputEuint32",
          "type": "bytes32"
        },
        {
          "internalType": "bytes",
          "name": "inputProof",
          "type": "bytes"
        }
      ],
      "name": "decrement",
      "outputs": [],
      "stateMutability": "nonpayable",
      "type": "function"
    },
    {
      "inputs": [],
      "name": "getCount",
      "outputs": [
        {
          "internalType": "euint32",
          "name": "",
          "type": "bytes32"
        }
      ],
      "stateMutability": "view",
      "type": "function"
    },
    {
      "inputs": [
        {
          "internalType": "externalEuint32",
          "name": "inputEuint32",
          "type": "bytes32"
        },
        {
          "internalType": "bytes",
          "name": "inputProof",
          "type": "bytes"
        }
      ],
      "name": "increment",
      "outputs": [],
      "stateMutability": "nonpayable",
      "type": "function"
    },
    {
      "inputs": [],
      "name": "protocolId",
      "outputs": [
        {
          "internalType": "uint256",
          "name": "",
          "type": "uint256"
        }
      ],
      "stateMutability": "pure",
      "type": "function"
    }
  ],
  "bytecode": "0x608060405234610194575f6060610014610198565b8281528260208201528260408201520152731364cbbf2cdf5032c47d8226a6f6fbd2afcdacac6060610044610198565b73687820221192c5b662b25367f70076a37bc79b6c815273848b0066793bcc60346da1f49049357399b8d595602082015273a02cda4ca3a71d7c46997716f4283aa851c288126040820152015273687820221192c5b662b25367f70076a37bc79b6c60018060a01b03195f51602061079f5f395f51905f525416175f51602061079f5f395f51905f525573848b0066793bcc60346da1f49049357399b8d59560018060a01b03195f51602061075f5f395f51905f525416175f51602061075f5f395f51905f525573a02cda4ca3a71d7c46997716f4283aa851c2881260018060a01b03195f51602061077f5f395f51905f525416175f51602061077f5f395f51905f5255731364cbbf2cdf5032c47d8226a6f6fbd2afcdacac60018060a01b03195f51602061073f5f395f51905f525416175f51602061073f5f395f51905f525560405161057390816101cc8239f35b5f80fd5b60405190608082016001600160401b038111838210176101b757604052565b634e487b7160e01b5f52604160045260245ffdfe60806040526004361015610011575f80fd5b5f3560e01c80635941195d14610196578063a87d942c1461017a578063da1f12ab1461015e5763e055f8f914610045575f80fd5b34610125576100696100636100593661024d565b92919236916102d7565b9061031d565b5f549080821561014e575b1561013c575b60209060646001600160a01b037f9e7b61f58c47dc699ac88507c4f5bb9f121c03808c5676a8078fe583e46497015416935f60405195869485936303056db360e31b8552600485015260248401528160448401525af18015610131575f906100f9575b806100eb915f5530906104e9565b6100f75f5433906104e9565b005b506020813d602011610129575b81610113602093836102a1565b81010312610125576100eb90516100dd565b5f80fd5b3d9150610106565b6040513d5f823e3d90fd5b506020610147610459565b905061007a565b9150610158610459565b91610074565b34610125575f3660031901126101255760206040516127118152f35b34610125575f3660031901126101255760205f54604051908152f35b34610125576101aa6100636100593661024d565b5f549080821561023d575b1561022b575b60209060646001600160a01b037f9e7b61f58c47dc699ac88507c4f5bb9f121c03808c5676a8078fe583e46497015416935f604051958694859363022f65e760e31b8552600485015260248401528160448401525af18015610131575f906100f957806100eb915f5530906104e9565b506020610236610459565b90506101bb565b9150610247610459565b916101b5565b6040600319820112610125576004359160243567ffffffffffffffff811161012557826023820112156101255780600401359267ffffffffffffffff84116101255760248483010111610125576024019190565b90601f8019910116810190811067ffffffffffffffff8211176102c357604052565b634e487b7160e01b5f52604160045260245ffd5b92919267ffffffffffffffff82116102c35760405191610301601f8201601f1916602001846102a1565b829481845281830111610125578281602093845f960137010152565b60209182916001600160a01b037f9e7b61f58c47dc699ac88507c4f5bb9f121c03808c5676a8078fe583e46497015416905f60a460405180978196829563196d0b9b60e01b84526004840152336024840152608060448401528051918291826084860152018484015e818101830184905260046064830152601f01601f191681010301925af1908115610131575f91610427575b506001600160a01b037f9e7b61f58c47dc699ac88507c4f5bb9f121c03808c5676a8078fe583e46497005416803b1561012557604051630f8e573b60e21b815260048101839052336024820152905f908290604490829084905af180156101315761041a575090565b5f610424916102a1565b90565b90506020813d602011610451575b81610442602093836102a1565b8101031261012557515f6103b1565b3d9150610435565b5f60206001600160a01b037f9e7b61f58c47dc699ac88507c4f5bb9f121c03808c5676a8078fe583e46497015416604460405180948193639cd07acb60e01b8352816004840152600460248401525af1908115610131575f916104ba575090565b90506020813d6020116104e1575b816104d5602093836102a1565b81010312610125575190565b3d91506104c8565b6001600160a01b037f9e7b61f58c47dc699ac88507c4f5bb9f121c03808c5676a8078fe583e4649700541691823b1561012557604051635ca4b5b160e11b815260048101929092526001600160a01b03166024820152905f908290604490829084905af180156101315761055a5750565b5f610564916102a1565b56fea164736f6c634300081b000a9e7b61f58c47dc699ac88507c4f5bb9f121c03808c5676a8078fe583e46497039e7b61f58c47dc699ac88507c4f5bb9f121c03808c5676a8078fe583e46497019e7b61f58c47dc699ac88507c4f5bb9f121c03808c5676a8078fe583e46497029e7b61f58c47dc699ac88507c4f5bb9f121c03808c5676a8078fe583e4649700",
  "linkReferences": {},
  "deployedLinkReferences": {}
}