{
  "_format": "hh-sol-artifact-1",
  "contractName": "FHEBank",
  "sourceName": "contracts/FHEBank.sol",
  "abi": [
    {
      "anonymous": false,
      "inputs": [
        {
          "indexed": true,
          "internalType": "address",
          "name": "user",
          "type": "address"
        },
        {
          "indexed": false,
          "internalType": "uint256",
          "name": "amount",
          "type": "uint256"
        }
      ],
      "name": "Deposit",
      "type": "event"
    },
    {
      "anonymous": false,
      "inputs": [
        {
          "indexed": true,
          "internalType": "address",
          "name": "from",
          "type": "address"
        },
        {
          "indexed": true,
          "internalType": "address",
          "name": "to",
          "type": "address"
        },
        {
          "indexed": false,
          "internalType": "uint256",
          "name": "amount",
          "type": "uint256"
        }
      ],
      "name": "Transfer",
      "type": "event"
    },
    {
      "anonymous": false,
      "inputs": [
        {
          "indexed": true,
          "internalType": "address",
          "name": "user",
          "type": "address"
        },
        {
          "indexed": false,
          "internalType": "uint256",
          "name": "amount",
          "type": "uint256"
        }
      ],
      "name": "Withdrawal",
      "type": "event"
    },
    {
      "inputs": [
        {
          "internalType": "externalEuint32",
          "name": "amount",
          "type": "bytes32"
        },
        {
          "internalType": "bytes",
          "name": "inputProof",
          "type": "bytes"
        }
      ],
      "name": "deposit",
      "outputs": [],
      "stateMutability": "nonpayable",
      "type": "function"
    },
    {
      "inputs": [
        {
          "internalType": "address",
          "name": "user1",
          "type": "address"
        },
        {
          "internalType": "address",
          "name": "user2",
          "type": "address"
        }
      ],
      "name": "getBalanceDifference",
      "outputs": [
        {
          "internalType": "euint32",
          "name": "",
          "type": "bytes32"
        }
      ],
      "stateMutability": "nonpayable",
      "type": "function"
    },
    {
      "inputs": [
        {
          "internalType": "address",
          "name": "user",
          "type": "address"
        }
      ],
      "name": "getEncryptedBalance",
      "outputs": [
        {
          "internalType": "euint32",
          "name": "",
          "type": "bytes32"
        }
      ],
      "stateMutability": "view",
      "type": "function"
    },
    {
      "inputs": [],
      "name": "getEncryptedTotalSupply",
      "outputs": [
        {
          "internalType": "euint32",
          "name": "",
          "type": "bytes32"
        }
      ],
      "stateMutability": "view",
      "type": "function"
    },
    {
      "inputs": [
        {
          "internalType": "address",
          "name": "user",
          "type": "address"
        },
        {
          "internalType": "euint32",
          "name": "amount",
          "type": "bytes32"
        }
      ],
      "name": "hasSufficientBalance",
      "outputs": [
        {
          "internalType": "ebool",
          "name": "",
          "type": "bytes32"
        }
      ],
      "stateMutability": "nonpayable",
      "type": "function"
    },
    {
      "inputs": [
        {
          "internalType": "euint32",
          "name": "amount",
          "type": "bytes32"
        }
      ],
      "name": "isTotalSupplyGreaterThan",
      "outputs": [
        {
          "internalType": "ebool",
          "name": "",
          "type": "bytes32"
        }
      ],
      "stateMutability": "nonpayable",
      "type": "function"
    },
    {
      "inputs": [],
      "name": "protocolId",
      "outputs": [
        {
          "internalType": "uint256",
          "name": "",
          "type": "uint256"
        }
      ],
      "stateMutability": "pure",
      "type": "function"
    },
    {
      "inputs": [
        {
          "internalType": "address",
          "name": "to",
          "type": "address"
        },
        {
          "internalType": "externalEuint32",
          "name": "amount",
          "type": "bytes32"
        },
        {
          "internalType": "bytes",
          "name": "inputProof",
          "type": "bytes"
        }
      ],
      "name": "transfer",
      "outputs": [],
      "stateMutability": "nonpayable",
      "type": "function"
    },
    {
      "inputs": [
        {
          "internalType": "externalEuint32",
          "name": "amount",
          "type": "bytes32"
        },
        {
          "internalType": "bytes",
          "name": "inputProof",
          "type": "bytes"
        }
      ],
      "name": "withdraw",
      "outputs": [],
      "stateMutability": "nonpayable",
      "type": "function"
    }
  ],
  "bytecode": "0x608060405234610194575f6060610014610198565b8281528260208201528260408201520152731364cbbf2cdf5032c47d8226a6f6fbd2afcdacac6060610044610198565b73687820221192c5b662b25367f70076a37bc79b6c815273848b0066793bcc60346da1f49049357399b8d595602082015273a02cda4ca3a71d7c46997716f4283aa851c288126040820152015273687820221192c5b662b25367f70076a37bc79b6c60018060a01b03195f516020610c365f395f51905f525416175f516020610c365f395f51905f525573848b0066793bcc60346da1f49049357399b8d59560018060a01b03195f516020610bf65f395f51905f525416175f516020610bf65f395f51905f525573a02cda4ca3a71d7c46997716f4283aa851c2881260018060a01b03195f516020610c165f395f51905f525416175f516020610c165f395f51905f5255731364cbbf2cdf5032c47d8226a6f6fbd2afcdacac60018060a01b03195f516020610bd65f395f51905f525416175f516020610bd65f395f51905f5255604051610a0a90816101cc8239f35b5f80fd5b60405190608082016001600160401b038111838210176101b757604052565b634e487b7160e01b5f52604160045260245ffdfe60806040526004361015610011575f80fd5b5f3560e01c8063137fbc03146104dc578063402dc4e4146104a55780634a2e35ba146103fd5780637b7e0a5a146102e0578063999d5d41146101d2578063b5fb3bac14610171578063d4ea066414610154578063da1f12ab146101385763e29973fc1461007c575f80fd5b34610134576100cc6100a361009d610093366105d4565b929192369161063e565b90610684565b335f525f6020526100b88160405f2054610887565b335f525f60205260405f2055600154610887565b600155335f525f6020526100e560405f20543090610980565b6100f130600154610980565b335f525f6020526101063360405f2054610980565b6040515f81527fe1fffcc4923d04b559f4d29a8bfc6cda04eb5b0d3c460751c2402c5c5cc9109c60203392a2005b5f80fd5b34610134575f3660031901126101345760206040516127118152f35b34610134575f366003190112610134576020600154604051908152f35b346101345760403660031901126101345761018a610590565b602435906001600160a01b038216809203610134576020916001600160a01b036101ca92165f525f835260405f2054905f525f835260405f2054906107c0565b604051908152f35b34610134576040366003190112610134576101eb610590565b6001600160a01b0360243591165f525f60205260405f2054908082156102d0575b156102be575b60209060646001600160a01b037f9e7b61f58c47dc699ac88507c4f5bb9f121c03808c5676a8078fe583e46497015416935f6040519586948593631391547f60e01b8552600485015260248401528160448401525af180156102b3575f90610280575b602090604051908152f35b506020813d6020116102ab575b8161029a60209383610608565b810103126101345760209051610275565b3d915061028d565b6040513d5f823e3d90fd5b5060206102c961091f565b9050610212565b91506102da61091f565b9161020c565b34610134576060366003190112610134576102f9610590565b60443567ffffffffffffffff8111610134576103316103296103226103cf9336906004016105a6565b369161063e565b602435610684565b91335f525f6020526103478360405f20546107c0565b335f525f60205260405f20556103726001600160a01b03821693845f525f60205260405f2054610887565b835f525f60205260405f2055335f525f60205261039460405f20543090610980565b825f525f6020526103a93060405f2054610980565b335f525f6020526103be3360405f2054610980565b825f525f60205260405f2054610980565b6040515f81527fddf252ad1be2c89b69c2b068fc378daa952ba7f163c4a11628f55a4df523b3ef60203392a3005b346101345761043d61041461009d610093366105d4565b335f525f6020526104298160405f20546107c0565b335f525f60205260405f20556001546107c0565b600155335f525f60205261045660405f20543090610980565b61046230600154610980565b335f525f6020526104773360405f2054610980565b6040515f81527f7fcf532c15f0a6db0bd6d0e038bea71d30d808c7d98cb3bf7268a95bf5081b6560203392a2005b34610134576020366003190112610134576001600160a01b036104c6610590565b165f525f602052602060405f2054604051908152f35b3461013457602036600319011261013457600154600435808215610580575b1561056e575b60209060646001600160a01b037f9e7b61f58c47dc699ac88507c4f5bb9f121c03808c5676a8078fe583e46497015416935f60405195869485936385362ee760e01b8552600485015260248401528160448401525af180156102b3575f9061028057602090604051908152f35b50602061057961091f565b9050610501565b915061058a61091f565b916104fb565b600435906001600160a01b038216820361013457565b9181601f840112156101345782359167ffffffffffffffff8311610134576020838186019501011161013457565b90604060031983011261013457600435916024359067ffffffffffffffff821161013457610604916004016105a6565b9091565b90601f8019910116810190811067ffffffffffffffff82111761062a57604052565b634e487b7160e01b5f52604160045260245ffd5b92919267ffffffffffffffff821161062a5760405191610668601f8201601f191660200184610608565b829481845281830111610134578281602093845f960137010152565b60209182916001600160a01b037f9e7b61f58c47dc699ac88507c4f5bb9f121c03808c5676a8078fe583e46497015416905f60a460405180978196829563196d0b9b60e01b84526004840152336024840152608060448401528051918291826084860152018484015e818101830184905260046064830152601f01601f191681010301925af19081156102b3575f9161078e575b506001600160a01b037f9e7b61f58c47dc699ac88507c4f5bb9f121c03808c5676a8078fe583e46497005416803b1561013457604051630f8e573b60e21b815260048101839052336024820152905f908290604490829084905af180156102b357610781575090565b5f61078b91610608565b90565b90506020813d6020116107b8575b816107a960209383610608565b8101031261013457515f610718565b3d915061079c565b908115610877575b8015610865575b60209060646001600160a01b037f9e7b61f58c47dc699ac88507c4f5bb9f121c03808c5676a8078fe583e46497015416935f60405195869485936303056db360e31b8552600485015260248401528160448401525af19081156102b3575f91610836575090565b90506020813d60201161085d575b8161085160209383610608565b81010312610134575190565b3d9150610844565b50602061087061091f565b90506107cf565b905061088161091f565b906107c8565b90811561090f575b80156108fd575b60209060646001600160a01b037f9e7b61f58c47dc699ac88507c4f5bb9f121c03808c5676a8078fe583e46497015416935f604051958694859363022f65e760e31b8552600485015260248401528160448401525af19081156102b3575f91610836575090565b50602061090861091f565b9050610896565b905061091961091f565b9061088f565b5f60206001600160a01b037f9e7b61f58c47dc699ac88507c4f5bb9f121c03808c5676a8078fe583e46497015416604460405180948193639cd07acb60e01b8352816004840152600460248401525af19081156102b3575f91610836575090565b6001600160a01b037f9e7b61f58c47dc699ac88507c4f5bb9f121c03808c5676a8078fe583e4649700541691823b1561013457604051635ca4b5b160e11b815260048101929092526001600160a01b03166024820152905f908290604490829084905af180156102b3576109f15750565b5f6109fb91610608565b56fea164736f6c634300081b000a9e7b61f58c47dc699ac88507c4f5bb9f121c03808c5676a8078fe583e46497039e7b61f58c47dc699ac88507c4f5bb9f121c03808c5676a8078fe583e46497019e7b61f58c47dc699ac88507c4f5bb9f121c03808c5676a8078fe583e46497029e7b61f58c47dc699ac88507c4f5bb9f121c03808c5676a8078fe583e4649700",
  "linkReferences": {},
  "deployedLinkReferences": {}
}